:030000000202C237
:0C02C200787FE4F6D8FD7581370203094F
:0404C9000208000025
:0805500053903CC2CC43B0CC37
:0A05580000007F907E9DDEFEDFFCB8
:010562002276
:10005E00E4F50CE53360030200E5E521702112059D
:10006E005020B205752101801620B305752102803E
:10007E000E20B605752103800620B703752104E511
:10008E002160314390C3D2CC53B033120558209027
:10009E0005752E01801E209105752E028016209664
:1000AE0005752E03800E209705752E04800620CC34
:1000BE0003752E05E52E601FE5211475F005A425A8
:1000CE002EF533D2033000047F0180027F0212002E
:1000DE0050852708852809E5337003020174E52E43
:1000EE0024FE601114601214601314601424047042
:1000FE0016A290800EA291800AA2968006A29780E8
:10010E0002A2CCE433F50CE50C7037C3E533648002
:10011E00948C4019D3E5336480948F50107D987C75
:10012E003AAF09AE08120026EF6029800E7DD07C12
:10013E0007AF09AE08120026EF60197534027F0270
:10014E00800FE534B402057534038003753401E481
:10015E00FF120050E534600E85332264026007E41E
:06016E00F533F521F52E2A
:010174002268
:10017500E4F50CE533706EE521702112055020B2CF
:1001850005752101801620B305752102800E20B664
:1001950005752103800620B703752104E52160312B
:1001A5004390C3D2CC53B033120558209005752E19
:1001B50001801E209105752E028016209605752E4C
:1001C50003800E209705752E04800620CC03752E1E
:1001D50005E52E6010E5211475F005A4252EF533EF
:1001E5007F01120050E533603CE52E24FE601114BA
:1001F500601214601314601424047016A290800E0B
:10020500A291800AA2968006A2978002A2CCE4332E
:10021500F50CE50C600FE4FF120050853322E4F580
:0502250021F52EF53368
:01022A0022B1
:0404CD00020A00001F
:10002600AB07AA06AE04AF057C007D0A12034EC3D9
:10003600E5289BFDE5279AFCD3ED9FEC9E40047FC7
:060046000180027F002290
:030050008F2922D3
:10041900E529652A602085292AE529600F24FE60DF
:100429000F14600C2402700EC2CD800AD2CD800652
:1004390085270A85280BE529B402167D2C7C01AF96
:100449000BAE0A120026EF6008B2CD85270A85286F
:100459000BE529B403167D587C02AF0BAE0A1200D6
:0C04690026EF6008B2CD85270A85280B1D
:010475002264
:1004D10002270000022C0000C101C103C104C102B6
:1004E100C180012B00013100042300000000013014
:1004F10000012100012E000133000122000134001E
:06050100013200012F0091
:03000300020012E6
:0100120032BB
:0300130002005692
:010056003277
:0300530002000E9A
:04000E0053EFEF328B
:03005B0002004C54
:04004C0053EFDF325D
:03000B00020016DA
:0D001600C0E00528E52870020527D0E03283
:03002300020508CB
:10050800C0E0C0D075D010309904C299C2013098AB
:100518001AC298AF32053274352FF8A699D3E5324E
:10052800648094824005753200D202D0D0D0E03287
:0A05C50000007F907E9DDEFEDFFC4B
:0105CF002209
:0C05B8007F397E1B7D70DDFEDEFCDFFA6B
:0105C4002214
:05000600D2B50205C5A2
:10056300538E7F5389F0E4F58A758CDCC28DD28C6F
:03057300D2A922E8
:1005880020040DD288D2A8D28AD2AA758F30D2047C
:010598002240
:1005990030040C120006C2A8C2AAE4F58FC20422D4
:1005380053903CC2CC43B0CCC2B5120588E4F5BB9D
:0805480000007587020000228B
:0F05A9007F5A1205D07FA51205D0AF220205D0D0
:10022B00E522602CE534B40203432280E534B403A9
:10023B00034322C0E534B40206B4020830030512AE
:10024B0005A9C203E4F522E53464026003E4F53446
:10025B00300263C202E535645A705BE53664A57003
:10026B005585372FE52F24DE600F14601D24FE60AB
:10027B003724047041C200802F200008E4FF1200D5
:10028B00501205B8D200E4F53022752B01E4F5309D
:10029B00F531F526F525F524F523F521F52EF53366
:1002AB007F031200500205B875300185272C852875
:0702BB002D7F02120050220A
:1003B400E5317060120175E52214FF74017E00A816
:1003C40007088005C333CE33CED8F9FFEE3395E06A
:1003D400FDFCEF4526F526EE4525F525ED4524F5EE
:1003E40024EC4523F523E526F526E525F525E52426
:1003F4005403F524E4F5237FFF7EFF7D03FCAB2645
:10040400AA25A924A823C31203A370087531017F68
:0504140001120050225E
:10047600120576120563D2AF120599E52B600812B4
:1004860003B412041980F1E530700512005E80197C
:100496007D607CEAAF2DAE2C120026EF600BE4F5F2
:1004A60030F52CF52DFF12005012022B12041920E4
:1004B60001C6E53370C2E53070BEE52B70BA120591
:0304C6003880B5C6
:10057600E4F5A275985075D7E075D6FE758E15D23E
:02058600AC22A5
:0805D0002001FDD2018F9922E8
:1002CE00020476E493A3F8E493A34003F68001F2CC
:1002DE0008DFF48029E493A3F85407240CC8C33331
:1002EE00C4540F4420C8834004F456800146F6DF00
:1002FE00E4800B01020408102040809004C9E47EC3
:10030E00019360BCA3FF543F30E509541FFEE493F4
:10031E00A360010ECF54C025E060A840B8E493A3BB
:10032E00FAE493A3F8E493A3C8C582C8CAC583CAE6
:10033E00F0A3C8C582C8CAC583CADFE9DEE780BE9E
:0105070000F3
:10034E00BC000BBE0029EF8DF084FFADF022E4CC93
:10035E00F875F008EF2FFFEE33FEEC33FCEE9DEC5C
:10036E00984005FCEE9DFE0FD5F0E9E4CEFD22EDA2
:10037E00F8F5F0EE8420D21CFEADF075F008EF2FEC
:10038E00FFED33FD4007985006D5F0F222C398FDDD
:05039E000FD5F0EA227A
:1003A300EB9FF5F0EA9E42F0E99D42F0E89C45F0B0
:0103B3002227
:00000001FF
