:030000000203F206
:0C03F200787FE4F6D8FD758148020439DC
:06060200040800000000E6
:0806970053903CC2CC43B0CCEF
:0A069F0000007F907E9DDEFEDFFC70
:0106A900222E
:10005E00E4F540E53760030200EBE521702112065E
:10006E009720B205752101801620B30575210280F7
:10007E000E20B605752103800620B703752104E511
:10008E002160314390C3D2CC53B03312069F2090DF
:10009E0005753201801E209105753202801620965C
:1000AE0005753203800E209705753204800620CC2C
:1000BE0003753205E5326025E5211475F005A4259A
:1000CE0032F537D2033000047F0180027F0212071F
:1000DE0003852A0B85290A852809852708E53770A7
:1000EE0003020190E53224FE6011146012146013B5
:1000FE0014601424047016A290800EA291800AA29D
:10010E00968006A2978002A2CCE433F540E54070BB
:10011E004DC3E5376480948C4024D3E537648094D6
:10012E008F501BE475489875473AF546F545AF0B69
:10013E00AE0AAD09AC081205BFEF60348019E47544
:10014E0048D0754707F546F545AF0BAE0AAD09AC7D
:10015E00081205BFEF6019753C027F02800FE53C67
:10016E00B40205753C038003753C01E4FF120703DE
:10017E00E53C600E85372264026007E4F537F52111
:02018E00F53248
:01019000224C
:10033C00E4F540E537706EE521702112069720B286
:10034C0005752101801620B305752102800E20B69B
:10035C0005752103800620B703752104E521603162
:10036C004390C3D2CC53B03312069F209005753204
:10037C0001801E209105753202801620960575327B
:10038C0003800E209705753204800620CC0375324D
:10039C0005E5326010E5211475F005A42532F5371A
:1003AC007F01120703E537603CE53224FE6011142F
:1003BC00601214601314601424047016A290800E42
:1003CC00A291800AA2968006A2978002A2CCE43366
:1003DC00F540E540600FE4FF120703853722E4F592
:0503EC0021F532F53798
:0103F10022E9
:06060800040C00000000DC
:0C05B300F546F545AF0FAE0EAD0DAC0CDB
:1005BF008F448E438D428C41E47B0AFAF9F8AF48A1
:1005CF00AE47AD46AC451201CDA804A905AA06ABAE
:1005DF0007C3E52A9544FFE5299543FEE528954293
:1005EF00FDE5279541FCC312025F50047F01800295
:0305FF007F002258
:030703008F2B2217
:10047E00E52B652C6026852B2CE52B600F24FE606A
:10048E000F14600C24027014C2CD8010D2CD800CDB
:10049E00852A0F85290E85280D85270CE52BB4029C
:1004AE001BE475482C7547011205B3EF600EB2CDF3
:1004BE00852A0F85290E85280D85270CE52BB4037B
:1004CE001BE47548587547021205B3EF600EB2CDA6
:0C04DE00852A0F85290E85280D85270C26
:0104EA0022EF
:10060E00042700000000042E000000000438000043
:10061E000000C101C103C104C102C180012D00014E
:10062E0035000423000000000134000121000132D6
:10063E0000013700012200013C00013600013300A9
:03000300020012E6
:0100120032BB
:0300130002005A8E
:01005A003273
:0300530002000E9A
:04000E0053EFEF328B
:03005B000200564A
:0400560053EFDF3253
:03000B00020026CA
:10002600C0E0C0D0E52A2401F52AE43529F529E403
:0E0036003528F528E43527F527D0D0D0E03264
:0300230002064F83
:10064F00C0E0C0D075D010309904C299C201309863
:10065F001AC298AF360536743D2FF8A699D3E536F2
:10066F00648094824005753600D202D0D0D0E0323B
:0A06F00000007F907E9DDEFEDFFC1F
:0106FA0022DD
:0C0016007F397E1B7D70DDFEDEFCDFFA12
:0100220022BB
:05000600D2B50206F076
:1006AA00538E7F5389F0E4F58A758CDCC28DD28C27
:0306BA00D2A922A0
:1006CF0020040DD288D2A8D28AD2AA758F30D20434
:0106DF0022F8
:1006E00030040C120006C2A8C2AAE4F58FC204228C
:10067F0053903CC2CC43B0CCC2B51206CFE4F5BB0D
:08068F00000075870200002243
:0F0044007F5A1206FB7FA51206FBAF220206FBB6
:10027000E522602CE53CB40203432280E53CB40354
:10028000034322C0E53CB40206B402083003051261
:100290000044C203E4F522E53C64026003E4F53C5B
:1002A00020020302033BC202E53D645A60030203DD
:1002B0003BE53E64A5600302033B853F33E5332401
:1002C000DE602914603724FE60512404706DC20082
:1002D000753401852A3185293085282F85272EE41C
:1002E000753B60753AEAF539F538804A200008E434
:1002F000FF120703120016D200E4F53422752D0117
:10030000E4F534F535F526F525F524F523F521F545
:1003100032F5377F03120703020016753401852A70
:100320003185293085282F85272E753BC0753AD415
:0C0330007539017538007F0212070322A6
:1004EB00E535706012033CE52214FF74017E00A811
:1004FB0007088005C333CE33CED8F9FFEE3395E032
:10050B00FDFCEF4526F526EE4525F525ED4524F5B5
:10051B0024EC4523F523E526F526E525F525E524ED
:10052B005403F524E4F5237FFF7EFF7D03FCAB260C
:10053B00AA25A924A823C312025F70087535017F71
:05054B0001120703226C
:100550001206BD1206AAD2AF1206E0E52D600812FF
:1005600004EB12047E80F1E534700512005E8029F0
:10057000853B48853A47853946853845AF31AE30A9
:10058000AD2FAC2E1205BFEF600FE4F534F531F559
:1005900030F52FF52EFF12070312027012047E2091
:1005A00001B6E53770B2E53470AEE52D70AA1206DB
:0305B0007F80A5A4
:1006BD00E4F5A275985075D7E075D6FE758E15D2F6
:0206CD00AC225D
:0806FB002001FDD2018F9922BC
:1003FE00020550E493A3F8E493A34003F68001F2C0
:10040E0008DFF48029E493A3F85407240CC8C333FF
:10041E00C4540F4420C8834004F456800146F6DFCE
:10042E00E4800B0102040810204080900602E47E56
:10043E00019360BCA3FF543F30E509541FFEE493C3
:10044E00A360010ECF54C025E060A840B8E493A38A
:10045E00FAE493A3F8E493A3C8C582C8CAC583CAB5
:10046E00F0A3C8C582C8CAC583CADFE9DEE780BE6D
:01064E0000AB
:1001910075F008758200EF2FFFEE33FECD33CDCC25
:1001A10033CCC58233C5829BED9AEC99E5829840A8
:1001B1000CF582EE9BFEED9AFDEC99FC0FD5F0D685
:1001C100E4CEFBE4CDFAE4CCF9A88222B800C1B9AF
:1001D1000059BA002DEC8BF084CFCECDFCE5F0CBED
:1001E100F97818EF2FFFEE33FEED33FDEC33FCEB26
:1001F10033FB10D703994004EB99FB0FD8E5E4F9E1
:10020100FA227818EF2FFFEE33FEED33FDEC33FCCD
:10021100C933C910D7059BE99A4007EC9BFCE99AC1
:10022100F90FD8E0E4C9FAE4CCFB2275F010EF2F06
:10023100FFEE33FEED33FDCC33CCC833C810D70706
:100241009BEC9AE899400AED9BFDEC9AFCE899F841
:0E0251000FD5F0DAE4CDFBE4CCFAE4C8F922D4
:10025F00EB9FF5F0EA9E42F0E99D42F0E89C45F0F5
:01026F00226C
:00000001FF
