:030000000203E414
:0C03E400787FE4F6D8FD75814802042BF8
:0605F400040800000000F5
:0806BE0053903CC2CC43B0CCC8
:0A06C60000007F907E9DDEFEDFFC49
:0106D0002207
:10005E00E4F540E53660030200EBE521702112065F
:10006E00BE20B205752101801620B30575210280D0
:10007E000E20B605752103800620B703752104E511
:10008E002160314390C3D2CC53B0331206C62090B8
:10009E0005753201801E209105753202801620965C
:1000AE0005753203800E209705753204800620CC2C
:1000BE0003753205E5326025E5211475F005A4259A
:1000CE0032F536D2033000047F0180027F02120027
:1000DE0056852A0B85290A852809852708E5367055
:1000EE0003020190E53224FE6011146012146013B5
:1000FE0014601424047016A290800EA291800AA29D
:10010E00968006A2978002A2CCE433F540E54070BB
:10011E004DC3E5366480948C4024D3E536648094D8
:10012E008F501BE475489875473AF546F545AF0B69
:10013E00AE0AAD09AC081205B1EF60348019E47552
:10014E0048D0754707F546F545AF0BAE0AAD09AC7D
:10015E00081205B1EF6019753C027F02800FE53C75
:10016E00B40205753C038003753C01E4FF12005692
:10017E00E53C600E85362264026007E4F536F52113
:02018E00F53248
:01019000224C
:10032E00E4F540E536706EE52170211206BE20B26E
:10033E0005752101801620B305752102800E20B6A9
:10034E0005752103800620B703752104E521603170
:10035E004390C3D2CC53B0331206C62090057532EB
:10036E0001801E2091057532028016209605753289
:10037E0003800E209705753204800620CC0375325B
:10038E0005E5326010E5211475F005A42532F53629
:10039E007F01120056E536603CE53224FE601114F2
:1003AE00601214601314601424047016A290800E50
:1003BE00A291800AA2968006A2978002A2CCE43374
:1003CE00F540E540600FE4FF120056853622E4F555
:0503DE0021F532F536A7
:0103E30022F7
:0605FA00040C00000000EB
:0C05A500F546F545AF0FAE0EAD0DAC0CE9
:1005B1008F448E438D428C41E47B0AFAF9F8AF48AF
:1005C100AE47AD46AC451201CDA804A905AA06ABBC
:1005D10007C3E52A9544FFE5299543FEE5289542A1
:1005E100FDE5279541FCC312025F50047F018002A3
:0305F1007F002266
:030056008F2B22CB
:10047000E52B652C6026852B2CE52B600F24FE6078
:100480000F14600C24027014C2CD8010D2CD800CE9
:10049000852A0F85290E85280D85270CE52BB402AA
:1004A0001BE475482C7547011205A5EF600EB2CD0F
:1004B000852A0F85290E85280D85270CE52BB40389
:1004C0001BE47548587547021205A5EF600EB2CDC2
:0C04D000852A0F85290E85280D85270C34
:0104DC0022FD
:10060000042700000000042E000000000438000051
:100610000000C101C103C104C102C180012D00015C
:1006200034000423000000000137000133000121E1
:1006300000013200013600012200013C00013500BA
:03000300020012E6
:0100120032BB
:030013000200598F
:010059003274
:0300530002000E9A
:04000E0053EFEF328B
:03005B0002004F51
:04004F0053EFDF325A
:03000B00020026CA
:10002600C0E0C0D0E52A2401F52AE43529F529E403
:0E0036003528F528E43527F527D0D0D0E03264
:030023000206765C
:10067600C0E0C0D075D010309904C299C20130983C
:100686001AC298AF350535743D2FF8A699D3E535CE
:10069600648094824005753500D202D0D0D0E03215
:0A00440000007F907E9DDEFEDFFCD1
:01004E00228F
:0C0016007F397E1B7D70DDFEDEFCDFFA12
:0100220022BB
:05000600D2B502004428
:1006D100538E7F5389F0E4F58A758CDCC28DD28C00
:0306E100D2A92279
:1006F60020040DD288D2A8D28AD2AA758F30D2040D
:0107060022D0
:1007180030040C120006C2A8C2AAE4F58FC2042253
:1006A60053903CC2CC43B0CCC2B51206F6E4F5BBBF
:0806B60000007587020000221C
:100707008F407F5A1207287FA5120728AF4002079C
:0107170028B9
:1002700020020302032DC202E53D645A600302031B
:100280002DE53E64A5600302032DAF3FEF24DE6041
:100290002C14605824FE60722404600302032DC2F3
:1002A00000753301852A3185293085282F85272E31
:1002B000E4753B60753AEAF539F538806B20000843
:1002C000E4FF120056120016D200E537601AE4F57A
:1002D00037852A3185293085282F85272E753B10B3
:1002E000753A27F539F53822E4F53322752D01E406
:1002F000F533F534F526F525F524F523F521F5320A
:10030000F5367F031200560200167537017533016A
:10031000852A3185293085282F85272E753BC07584
:0D0320003AD47539017538007F021200567D
:01032D0022AD
:10064100E522602EE53CB40203432280E53CB4037D
:10065100034322C0E53CB40206B4020A300307AFEB
:1006610022120707C203E4F522E53C64026003E4B9
:05067100F53C020270DF
:1004DD00E534706012032EE52214FF74017E00A82E
:1004ED0007088005C333CE33CED8F9FFEE3395E040
:1004FD00FDFCEF4526F526EE4525F525ED4524F5C4
:10050D0024EC4523F523E526F526E525F525E524FB
:10051D005403F524E4F5237FFF7EFF7D03FCAB261A
:10052D00AA25A924A823C312025F70087534017F80
:05053D0001120056222E
:100542001206E41206D1D2AF120718E52D60081286
:1005520004DD12047080F1E533700512005E80291B
:10056200853B48853A47853946853845AF31AE30B7
:10057200AD2FAC2E1205B1EF600FE4F533F531F576
:1005820030F52FF52EFF120056120641120470208C
:1005920001B6E53670B2E53370AEE52D70AA1206EB
:0305A200A680A58B
:1006E400E4F5A275985075D7E075D6FE758E15D2CF
:0206F400AC2236
:080728002001FDD2018F99228E
:1003F000020542E493A3F8E493A34003F68001F2DC
:1004000008DFF48029E493A3F85407240CC8C3330D
:10041000C4540F4420C8834004F456800146F6DFDC
:10042000E4800B01020408102040809005F4E47E73
:10043000019360BCA3FF543F30E509541FFEE493D1
:10044000A360010ECF54C025E060A840B8E493A398
:10045000FAE493A3F8E493A3C8C582C8CAC583CAC3
:10046000F0A3C8C582C8CAC583CADFE9DEE780BE7B
:0106400000B9
:1001910075F008758200EF2FFFEE33FECD33CDCC25
:1001A10033CCC58233C5829BED9AEC99E5829840A8
:1001B1000CF582EE9BFEED9AFDEC99FC0FD5F0D685
:1001C100E4CEFBE4CDFAE4CCF9A88222B800C1B9AF
:1001D1000059BA002DEC8BF084CFCECDFCE5F0CBED
:1001E100F97818EF2FFFEE33FEED33FDEC33FCEB26
:1001F10033FB10D703994004EB99FB0FD8E5E4F9E1
:10020100FA227818EF2FFFEE33FEED33FDEC33FCCD
:10021100C933C910D7059BE99A4007EC9BFCE99AC1
:10022100F90FD8E0E4C9FAE4CCFB2275F010EF2F06
:10023100FFEE33FEED33FDCC33CCC833C810D70706
:100241009BEC9AE899400AED9BFDEC9AFCE899F841
:0E0251000FD5F0DAE4CDFBE4CCFAE4C8F922D4
:10025F00EB9FF5F0EA9E42F0E99D42F0E89C45F0F5
:01026F00226C
:00000001FF
